{
  "_format": "hh-sol-artifact-1",
  "contractName": "PramaanQR",
  "sourceName": "contracts/PramaanQR.sol",
  "abi": [
    {
      "inputs": [
        {
          "internalType": "bytes32",
          "name": "hash",
          "type": "bytes32"
        }
      ],
      "name": "issueCredential",
      "outputs": [],
      "stateMutability": "nonpayable",
      "type": "function"
    },
    {
      "inputs": [
        {
          "internalType": "bytes32",
          "name": "",
          "type": "bytes32"
        }
      ],
      "name": "issuer",
      "outputs": [
        {
          "internalType": "address",
          "name": "",
          "type": "address"
        }
      ],
      "stateMutability": "view",
      "type": "function"
    },
    {
      "inputs": [
        {
          "internalType": "bytes32",
          "name": "hash",
          "type": "bytes32"
        }
      ],
      "name": "verifyCredential",
      "outputs": [
        {
          "internalType": "bool",
          "name": "",
          "type": "bool"
        }
      ],
      "stateMutability": "view",
      "type": "function"
    }
  ],
  "bytecode": "0x608060405234801561001057600080fd5b506103ab806100206000396000f3fe608060405234801561001057600080fd5b50600436106100415760003560e01c80634dbf87cc14610046578063af96bd6b14610076578063ec0619d4146100a6575b600080fd5b610060600480360381019061005b9190610239565b6100c2565b60405161006d9190610281565b60405180910390f35b610090600480360381019061008b9190610239565b6100eb565b60405161009d91906102dd565b60405180910390f35b6100c060048036038101906100bb9190610239565b61011e565b005b600080600083815260200190815260200160002060009054906101000a900460ff169050919050565b60016020528060005260406000206000915054906101000a900473ffffffffffffffffffffffffffffffffffffffff1681565b60008082815260200190815260200160002060009054906101000a900460ff161561017e576040517f08c379a000000000000000000000000000000000000000000000000000000000815260040161017590610355565b60405180910390fd5b600160008083815260200190815260200160002060006101000a81548160ff021916908315150217905550336001600083815260200190815260200160002060006101000a81548173ffffffffffffffffffffffffffffffffffffffff021916908373ffffffffffffffffffffffffffffffffffffffff16021790555050565b600080fd5b6000819050919050565b61021681610203565b811461022157600080fd5b50565b6000813590506102338161020d565b92915050565b60006020828403121561024f5761024e6101fe565b5b600061025d84828501610224565b91505092915050565b60008115159050919050565b61027b81610266565b82525050565b60006020820190506102966000830184610272565b92915050565b600073ffffffffffffffffffffffffffffffffffffffff82169050919050565b60006102c78261029c565b9050919050565b6102d7816102bc565b82525050565b60006020820190506102f260008301846102ce565b92915050565b600082825260208201905092915050565b7f416c726561647920697373756564000000000000000000000000000000000000600082015250565b600061033f600e836102f8565b915061034a82610309565b602082019050919050565b6000602082019050818103600083015261036e81610332565b905091905056fea2646970667358221220fa5f7c32cee0aeb18fed2375f82e88248476078ae4b8583a1a932459ba2ac2b264736f6c63430008140033",
  "linkReferences": {},
  "deployedLinkReferences": {}
}